{
  "_format": "hh-sol-artifact-1",
  "contractName": "MonadPageMinter",
  "sourceName": "contracts/MonadPageMinter.sol",
  "abi": [
    {
      "inputs": [],
      "stateMutability": "nonpayable",
      "type": "constructor"
    },
    {
      "anonymous": false,
      "inputs": [
        {
          "indexed": true,
          "internalType": "address",
          "name": "targetContract",
          "type": "address"
        },
        {
          "indexed": true,
          "internalType": "address",
          "name": "creator",
          "type": "address"
        },
        {
          "indexed": false,
          "internalType": "address",
          "name": "gateToken",
          "type": "address"
        },
        {
          "indexed": false,
          "internalType": "uint256",
          "name": "minTokenToUnlock",
          "type": "uint256"
        },
        {
          "indexed": false,
          "internalType": "string",
          "name": "ipfsHash",
          "type": "string"
        }
      ],
      "name": "PageMinted",
      "type": "event"
    },
    {
      "anonymous": false,
      "inputs": [
        {
          "indexed": true,
          "internalType": "address",
          "name": "targetContract",
          "type": "address"
        },
        {
          "indexed": false,
          "internalType": "address",
          "name": "gateToken",
          "type": "address"
        },
        {
          "indexed": false,
          "internalType": "uint256",
          "name": "minTokenToUnlock",
          "type": "uint256"
        },
        {
          "indexed": false,
          "internalType": "string",
          "name": "newIpfsHash",
          "type": "string"
        }
      ],
      "name": "PageUpdated",
      "type": "event"
    },
    {
      "anonymous": false,
      "inputs": [
        {
          "indexed": true,
          "internalType": "address",
          "name": "targetContract",
          "type": "address"
        },
        {
          "indexed": true,
          "internalType": "address",
          "name": "voter",
          "type": "address"
        },
        {
          "indexed": false,
          "internalType": "uint256",
          "name": "currentVotes",
          "type": "uint256"
        },
        {
          "indexed": false,
          "internalType": "uint256",
          "name": "creatorPayout",
          "type": "uint256"
        }
      ],
      "name": "TrustVoted",
      "type": "event"
    },
    {
      "inputs": [
        {
          "internalType": "address",
          "name": "_viewer",
          "type": "address"
        },
        {
          "internalType": "address",
          "name": "_targetContract",
          "type": "address"
        }
      ],
      "name": "checkAccess",
      "outputs": [
        {
          "internalType": "bool",
          "name": "",
          "type": "bool"
        }
      ],
      "stateMutability": "view",
      "type": "function"
    },
    {
      "inputs": [
        {
          "internalType": "address",
          "name": "",
          "type": "address"
        },
        {
          "internalType": "address",
          "name": "",
          "type": "address"
        }
      ],
      "name": "hasVoted",
      "outputs": [
        {
          "internalType": "bool",
          "name": "",
          "type": "bool"
        }
      ],
      "stateMutability": "view",
      "type": "function"
    },
    {
      "inputs": [],
      "name": "mintFee",
      "outputs": [
        {
          "internalType": "uint256",
          "name": "",
          "type": "uint256"
        }
      ],
      "stateMutability": "view",
      "type": "function"
    },
    {
      "inputs": [
        {
          "internalType": "address",
          "name": "_targetContract",
          "type": "address"
        },
        {
          "internalType": "address",
          "name": "_gateToken",
          "type": "address"
        },
        {
          "internalType": "uint256",
          "name": "_minTokenToUnlock",
          "type": "uint256"
        },
        {
          "internalType": "string",
          "name": "_ipfsMetadataHash",
          "type": "string"
        }
      ],
      "name": "mintPage",
      "outputs": [],
      "stateMutability": "payable",
      "type": "function"
    },
    {
      "inputs": [],
      "name": "owner",
      "outputs": [
        {
          "internalType": "address",
          "name": "",
          "type": "address"
        }
      ],
      "stateMutability": "view",
      "type": "function"
    },
    {
      "inputs": [
        {
          "internalType": "address",
          "name": "",
          "type": "address"
        }
      ],
      "name": "registry",
      "outputs": [
        {
          "internalType": "address",
          "name": "creator",
          "type": "address"
        },
        {
          "internalType": "address",
          "name": "targetContract",
          "type": "address"
        },
        {
          "internalType": "address",
          "name": "gateToken",
          "type": "address"
        },
        {
          "internalType": "uint256",
          "name": "minTokenToUnlock",
          "type": "uint256"
        },
        {
          "internalType": "uint256",
          "name": "totalTrustVotes",
          "type": "uint256"
        },
        {
          "internalType": "uint256",
          "name": "totalStakedValue",
          "type": "uint256"
        },
        {
          "internalType": "string",
          "name": "ipfsMetadataHash",
          "type": "string"
        },
        {
          "internalType": "uint256",
          "name": "mintedAt",
          "type": "uint256"
        },
        {
          "internalType": "bool",
          "name": "isMinted",
          "type": "bool"
        }
      ],
      "stateMutability": "view",
      "type": "function"
    },
    {
      "inputs": [
        {
          "internalType": "address",
          "name": "_targetContract",
          "type": "address"
        }
      ],
      "name": "submitTrustVote",
      "outputs": [],
      "stateMutability": "payable",
      "type": "function"
    },
    {
      "inputs": [],
      "name": "totalPagesMinted",
      "outputs": [
        {
          "internalType": "uint256",
          "name": "",
          "type": "uint256"
        }
      ],
      "stateMutability": "view",
      "type": "function"
    },
    {
      "inputs": [],
      "name": "totalProtocolRevenue",
      "outputs": [
        {
          "internalType": "uint256",
          "name": "",
          "type": "uint256"
        }
      ],
      "stateMutability": "view",
      "type": "function"
    },
    {
      "inputs": [
        {
          "internalType": "uint256",
          "name": "_newFee",
          "type": "uint256"
        }
      ],
      "name": "updateMintFee",
      "outputs": [],
      "stateMutability": "nonpayable",
      "type": "function"
    },
    {
      "inputs": [
        {
          "internalType": "address",
          "name": "_targetContract",
          "type": "address"
        },
        {
          "internalType": "address",
          "name": "_gateToken",
          "type": "address"
        },
        {
          "internalType": "uint256",
          "name": "_minTokenToUnlock",
          "type": "uint256"
        },
        {
          "internalType": "string",
          "name": "_newIpfsHash",
          "type": "string"
        }
      ],
      "name": "updatePageConfig",
      "outputs": [],
      "stateMutability": "nonpayable",
      "type": "function"
    },
    {
      "inputs": [],
      "name": "voteStakeAmount",
      "outputs": [
        {
          "internalType": "uint256",
          "name": "",
          "type": "uint256"
        }
      ],
      "stateMutability": "view",
      "type": "function"
    },
    {
      "inputs": [],
      "name": "withdrawFees",
      "outputs": [],
      "stateMutability": "nonpayable",
      "type": "function"
    }
  ],
  "bytecode": "0x6080604052662386f26fc1000060015566b1a2bc2ec5000060025534801561002657600080fd5b50336000806101000a81548173ffffffffffffffffffffffffffffffffffffffff021916908373ffffffffffffffffffffffffffffffffffffffff1602179055506125c6806100766000396000f3fe6080604052600436106100c25760003560e01c8063568732251161007f5780638c37f11d116100595780638c37f11d146102615780638da5cb5b1461028c578063bbe8cff1146102b7578063cc3478c8146102e2576100c2565b806356873225146101d257806362e1f745146101fb57806384017e5214610238576100c2565b8063038defd7146100c7578063086f8f061461010c57806313966db514610128578063476343ee1461015357806348a6bc2b1461016a5780634d4d2b1c14610195575b600080fd5b3480156100d357600080fd5b506100ee60048036038101906100e9919061167f565b6102fe565b6040516101039998979695949392919061177f565b60405180910390f35b610126600480360381019061012191906118a4565b610441565b005b34801561013457600080fd5b5061013d6108d8565b60405161014a919061192c565b60405180910390f35b34801561015f57600080fd5b506101686108de565b005b34801561017657600080fd5b5061017f610a85565b60405161018c919061192c565b60405180910390f35b3480156101a157600080fd5b506101bc60048036038101906101b79190611947565b610a8b565b6040516101c99190611987565b60405180910390f35b3480156101de57600080fd5b506101f960048036038101906101f491906118a4565b610aba565b005b34801561020757600080fd5b50610222600480360381019061021d9190611947565b610dfd565b60405161022f9190611987565b60405180910390f35b34801561024457600080fd5b5061025f600480360381019061025a91906119a2565b61111a565b005b34801561026d57600080fd5b506102766111b2565b604051610283919061192c565b60405180910390f35b34801561029857600080fd5b506102a16111b8565b6040516102ae91906119cf565b60405180910390f35b3480156102c357600080fd5b506102cc6111dc565b6040516102d9919061192c565b60405180910390f35b6102fc60048036038101906102f7919061167f565b6111e2565b005b60056020528060005260406000206000915090508060000160009054906101000a900473ffffffffffffffffffffffffffffffffffffffff16908060010160009054906101000a900473ffffffffffffffffffffffffffffffffffffffff16908060020160009054906101000a900473ffffffffffffffffffffffffffffffffffffffff16908060030154908060040154908060050154908060060180546103a590611a19565b80601f01602080910402602001604051908101604052809291908181526020018280546103d190611a19565b801561041e5780601f106103f35761010080835404028352916020019161041e565b820191906000526020600020905b81548152906001019060200180831161040157829003601f168201915b5050505050908060070154908060080160009054906101000a900460ff16905089565b600073ffffffffffffffffffffffffffffffffffffffff168573ffffffffffffffffffffffffffffffffffffffff16036104b0576040517f08c379a00000000000000000000000000000000000000000000000000000000081526004016104a790611a96565b60405180910390fd5b600073ffffffffffffffffffffffffffffffffffffffff168473ffffffffffffffffffffffffffffffffffffffff160361051f576040517f08c379a000000000000000000000000000000000000000000000000000000000815260040161051690611b02565b60405180910390fd5b600560008673ffffffffffffffffffffffffffffffffffffffff1673ffffffffffffffffffffffffffffffffffffffff16815260200190815260200160002060080160009054906101000a900460ff16156105af576040517f08c379a00000000000000000000000000000000000000000000000000000000081526004016105a690611b6e565b60405180910390fd5b6001543410156105f4576040517f08c379a00000000000000000000000000000000000000000000000000000000081526004016105eb90611bda565b60405180910390fd5b6040518061012001604052803373ffffffffffffffffffffffffffffffffffffffff1681526020018673ffffffffffffffffffffffffffffffffffffffff1681526020018573ffffffffffffffffffffffffffffffffffffffff168152602001848152602001600081526020016000815260200183838080601f016020809104026020016040519081016040528093929190818152602001838380828437600081840152601f19601f82011690508083019250505050505050815260200142815260200160011515815250600560008773ffffffffffffffffffffffffffffffffffffffff1673ffffffffffffffffffffffffffffffffffffffff16815260200190815260200160002060008201518160000160006101000a81548173ffffffffffffffffffffffffffffffffffffffff021916908373ffffffffffffffffffffffffffffffffffffffff16021790555060208201518160010160006101000a81548173ffffffffffffffffffffffffffffffffffffffff021916908373ffffffffffffffffffffffffffffffffffffffff16021790555060408201518160020160006101000a81548173ffffffffffffffffffffffffffffffffffffffff021916908373ffffffffffffffffffffffffffffffffffffffff160217905550606082015181600301556080820151816004015560a0820151816005015560c08201518160060190816108069190611dd5565b5060e082015181600701556101008201518160080160006101000a81548160ff0219169083151502179055509050506003600081548092919061084890611ed6565b9190505550346004600082825461085f9190611f1e565b925050819055503373ffffffffffffffffffffffffffffffffffffffff168573ffffffffffffffffffffffffffffffffffffffff167ffc43b879ef6de0afb57f3e1ad78d83a6cf7c715d5d54f85bf30a518865c31153868686866040516108c99493929190611f8e565b60405180910390a35050505050565b60015481565b60008054906101000a900473ffffffffffffffffffffffffffffffffffffffff1673ffffffffffffffffffffffffffffffffffffffff163373ffffffffffffffffffffffffffffffffffffffff161461096c576040517f08c379a00000000000000000000000000000000000000000000000000000000081526004016109639061201a565b60405180910390fd5b6000479050600081116109b4576040517f08c379a00000000000000000000000000000000000000000000000000000000081526004016109ab90612086565b60405180910390fd5b60008060009054906101000a900473ffffffffffffffffffffffffffffffffffffffff1673ffffffffffffffffffffffffffffffffffffffff16826040516109fb906120d7565b60006040518083038185875af1925050503d8060008114610a38576040519150601f19603f3d011682016040523d82523d6000602084013e610a3d565b606091505b5050905080610a81576040517f08c379a0000000000000000000000000000000000000000000000000000000008152600401610a7890612138565b60405180910390fd5b5050565b60035481565b60066020528160005260406000206020528060005260406000206000915091509054906101000a900460ff1681565b600560008673ffffffffffffffffffffffffffffffffffffffff1673ffffffffffffffffffffffffffffffffffffffff16815260200190815260200160002060080160009054906101000a900460ff16610b49576040517f08c379a0000000000000000000000000000000000000000000000000000000008152600401610b40906121a4565b60405180910390fd5b3373ffffffffffffffffffffffffffffffffffffffff16600560008773ffffffffffffffffffffffffffffffffffffffff1673ffffffffffffffffffffffffffffffffffffffff16815260200190815260200160002060000160009054906101000a900473ffffffffffffffffffffffffffffffffffffffff1673ffffffffffffffffffffffffffffffffffffffff1614610c19576040517f08c379a0000000000000000000000000000000000000000000000000000000008152600401610c1090612210565b60405180910390fd5b600073ffffffffffffffffffffffffffffffffffffffff168473ffffffffffffffffffffffffffffffffffffffff1603610c88576040517f08c379a0000000000000000000000000000000000000000000000000000000008152600401610c7f90611b02565b60405180910390fd5b83600560008773ffffffffffffffffffffffffffffffffffffffff1673ffffffffffffffffffffffffffffffffffffffff16815260200190815260200160002060020160006101000a81548173ffffffffffffffffffffffffffffffffffffffff021916908373ffffffffffffffffffffffffffffffffffffffff16021790555082600560008773ffffffffffffffffffffffffffffffffffffffff1673ffffffffffffffffffffffffffffffffffffffff168152602001908152602001600020600301819055508181600560008873ffffffffffffffffffffffffffffffffffffffff1673ffffffffffffffffffffffffffffffffffffffff1681526020019081526020016000206006019182610da192919061223b565b508473ffffffffffffffffffffffffffffffffffffffff167fd5032d3520d30fd1cfeaa59929fed1c1ebb929de18d3b1cd25b95728547a5bfd85858585604051610dee9493929190611f8e565b60405180910390a25050505050565b6000600560008373ffffffffffffffffffffffffffffffffffffffff1673ffffffffffffffffffffffffffffffffffffffff16815260200190815260200160002060080160009054906101000a900460ff16610e5c5760009050611114565b6000600560008473ffffffffffffffffffffffffffffffffffffffff1673ffffffffffffffffffffffffffffffffffffffff168152602001908152602001600020604051806101200160405290816000820160009054906101000a900473ffffffffffffffffffffffffffffffffffffffff1673ffffffffffffffffffffffffffffffffffffffff1673ffffffffffffffffffffffffffffffffffffffff1681526020016001820160009054906101000a900473ffffffffffffffffffffffffffffffffffffffff1673ffffffffffffffffffffffffffffffffffffffff1673ffffffffffffffffffffffffffffffffffffffff1681526020016002820160009054906101000a900473ffffffffffffffffffffffffffffffffffffffff1673ffffffffffffffffffffffffffffffffffffffff1673ffffffffffffffffffffffffffffffffffffffff168152602001600382015481526020016004820154815260200160058201548152602001600682018054610fd990611a19565b80601f016020809104026020016040519081016040528092919081815260200182805461100590611a19565b80156110525780601f1061102757610100808354040283529160200191611052565b820191906000526020600020905b81548152906001019060200180831161103557829003601f168201915b50505050508152602001600782015481526020016008820160009054906101000a900460ff1615151515815250509050806040015173ffffffffffffffffffffffffffffffffffffffff166370a08231856040518263ffffffff1660e01b81526004016110bf91906119cf565b602060405180830381865afa9250505080156110f957506040513d601f19601f820116820180604052508101906110f69190612320565b60015b611107576001915050611114565b8160600151811015925050505b92915050565b60008054906101000a900473ffffffffffffffffffffffffffffffffffffffff1673ffffffffffffffffffffffffffffffffffffffff163373ffffffffffffffffffffffffffffffffffffffff16146111a8576040517f08c379a000000000000000000000000000000000000000000000000000000000815260040161119f9061201a565b60405180910390fd5b8060018190555050565b60045481565b60008054906101000a900473ffffffffffffffffffffffffffffffffffffffff1681565b60025481565b600560008273ffffffffffffffffffffffffffffffffffffffff1673ffffffffffffffffffffffffffffffffffffffff16815260200190815260200160002060080160009054906101000a900460ff16611271576040517f08c379a0000000000000000000000000000000000000000000000000000000008152600401611268906121a4565b60405180910390fd5b600660003373ffffffffffffffffffffffffffffffffffffffff1673ffffffffffffffffffffffffffffffffffffffff16815260200190815260200160002060008273ffffffffffffffffffffffffffffffffffffffff1673ffffffffffffffffffffffffffffffffffffffff16815260200190815260200160002060009054906101000a900460ff161561133b576040517f08c379a000000000000000000000000000000000000000000000000000000000815260040161133290612399565b60405180910390fd5b600254341015611380576040517f08c379a000000000000000000000000000000000000000000000000000000000815260040161137790612405565b60405180910390fd5b6000600560008373ffffffffffffffffffffffffffffffffffffffff1673ffffffffffffffffffffffffffffffffffffffff16815260200190815260200160002090506001600660003373ffffffffffffffffffffffffffffffffffffffff1673ffffffffffffffffffffffffffffffffffffffff16815260200190815260200160002060008473ffffffffffffffffffffffffffffffffffffffff1673ffffffffffffffffffffffffffffffffffffffff16815260200190815260200160002060006101000a81548160ff021916908315150217905550600181600401600082825461146d9190611f1e565b92505081905550348160050160008282546114889190611f1e565b92505081905550600060646050346114a09190612425565b6114aa9190612496565b9050600081346114ba91906124c7565b905080600460008282546114ce9190611f1e565b9250508190555060008360000160009054906101000a900473ffffffffffffffffffffffffffffffffffffffff1673ffffffffffffffffffffffffffffffffffffffff168360405161151f906120d7565b60006040518083038185875af1925050503d806000811461155c576040519150601f19603f3d011682016040523d82523d6000602084013e611561565b606091505b50509050806115a5576040517f08c379a000000000000000000000000000000000000000000000000000000000815260040161159c90612547565b60405180910390fd5b3373ffffffffffffffffffffffffffffffffffffffff168573ffffffffffffffffffffffffffffffffffffffff167f7783cb1b77b23a3303fb99c002a4280d0f3da89a9ed230a21f188562b364f2e4866004015486604051611608929190612567565b60405180910390a35050505050565b600080fd5b600080fd5b600073ffffffffffffffffffffffffffffffffffffffff82169050919050565b600061164c82611621565b9050919050565b61165c81611641565b811461166757600080fd5b50565b60008135905061167981611653565b92915050565b60006020828403121561169557611694611617565b5b60006116a38482850161166a565b91505092915050565b6116b581611641565b82525050565b6000819050919050565b6116ce816116bb565b82525050565b600081519050919050565b600082825260208201905092915050565b60005b8381101561170e5780820151818401526020810190506116f3565b60008484015250505050565b6000601f19601f8301169050919050565b6000611736826116d4565b61174081856116df565b93506117508185602086016116f0565b6117598161171a565b840191505092915050565b60008115159050919050565b61177981611764565b82525050565b600061012082019050611795600083018c6116ac565b6117a2602083018b6116ac565b6117af604083018a6116ac565b6117bc60608301896116c5565b6117c960808301886116c5565b6117d660a08301876116c5565b81810360c08301526117e8818661172b565b90506117f760e08301856116c5565b611805610100830184611770565b9a9950505050505050505050565b61181c816116bb565b811461182757600080fd5b50565b60008135905061183981611813565b92915050565b600080fd5b600080fd5b600080fd5b60008083601f8401126118645761186361183f565b5b8235905067ffffffffffffffff81111561188157611880611844565b5b60208301915083600182028301111561189d5761189c611849565b5b9250929050565b6000806000806000608086880312156118c0576118bf611617565b5b60006118ce8882890161166a565b95505060206118df8882890161166a565b94505060406118f08882890161182a565b935050606086013567ffffffffffffffff8111156119115761191061161c565b5b61191d8882890161184e565b92509250509295509295909350565b600060208201905061194160008301846116c5565b92915050565b6000806040838503121561195e5761195d611617565b5b600061196c8582860161166a565b925050602061197d8582860161166a565b9150509250929050565b600060208201905061199c6000830184611770565b92915050565b6000602082840312156119b8576119b7611617565b5b60006119c68482850161182a565b91505092915050565b60006020820190506119e460008301846116ac565b92915050565b7f4e487b7100000000000000000000000000000000000000000000000000000000600052602260045260246000fd5b60006002820490506001821680611a3157607f821691505b602082108103611a4457611a436119ea565b5b50919050565b7f496e76616c696420746172676574206164647265737300000000000000000000600082015250565b6000611a806016836116df565b9150611a8b82611a4a565b602082019050919050565b60006020820190508181036000830152611aaf81611a73565b9050919050565b7f496e76616c6964206761746520746f6b656e2061646472657373000000000000600082015250565b6000611aec601a836116df565b9150611af782611ab6565b602082019050919050565b60006020820190508181036000830152611b1b81611adf565b9050919050565b7f5061676520616c7265616479206d696e74656400000000000000000000000000600082015250565b6000611b586013836116df565b9150611b6382611b22565b602082019050919050565b60006020820190508181036000830152611b8781611b4b565b9050919050565b7f496e636f7272656374206d696e74206665652073656e74000000000000000000600082015250565b6000611bc46017836116df565b9150611bcf82611b8e565b602082019050919050565b60006020820190508181036000830152611bf381611bb7565b9050919050565b7f4e487b7100000000000000000000000000000000000000000000000000000000600052604160045260246000fd5b60008190508160005260206000209050919050565b60006020601f8301049050919050565b600082821b905092915050565b600060088302611c8b7fffffffffffffffffffffffffffffffffffffffffffffffffffffffffffffffff82611c4e565b611c958683611c4e565b95508019841693508086168417925050509392505050565b6000819050919050565b6000611cd2611ccd611cc8846116bb565b611cad565b6116bb565b9050919050565b6000819050919050565b611cec83611cb7565b611d00611cf882611cd9565b848454611c5b565b825550505050565b600090565b611d15611d08565b611d20818484611ce3565b505050565b5b81811015611d4457611d39600082611d0d565b600181019050611d26565b5050565b601f821115611d8957611d5a81611c29565b611d6384611c3e565b81016020851015611d72578190505b611d86611d7e85611c3e565b830182611d25565b50505b505050565b600082821c905092915050565b6000611dac60001984600802611d8e565b1980831691505092915050565b6000611dc58383611d9b565b9150826002028217905092915050565b611dde826116d4565b67ffffffffffffffff811115611df757611df6611bfa565b5b611e018254611a19565b611e0c828285611d48565b600060209050601f831160018114611e3f5760008415611e2d578287015190505b611e378582611db9565b865550611e9f565b601f198416611e4d86611c29565b60005b82811015611e7557848901518255600182019150602085019450602081019050611e50565b86831015611e925784890151611e8e601f891682611d9b565b8355505b6001600288020188555050505b505050505050565b7f4e487b7100000000000000000000000000000000000000000000000000000000600052601160045260246000fd5b6000611ee1826116bb565b91507fffffffffffffffffffffffffffffffffffffffffffffffffffffffffffffffff8203611f1357611f12611ea7565b5b600182019050919050565b6000611f29826116bb565b9150611f34836116bb565b9250828201905080821115611f4c57611f4b611ea7565b5b92915050565b82818337600083830152505050565b6000611f6d83856116df565b9350611f7a838584611f52565b611f838361171a565b840190509392505050565b6000606082019050611fa360008301876116ac565b611fb060208301866116c5565b8181036040830152611fc3818486611f61565b905095945050505050565b7f4f6e6c79206f776e65722063616e206578656375746500000000000000000000600082015250565b60006120046016836116df565b915061200f82611fce565b602082019050919050565b6000602082019050818103600083015261203381611ff7565b9050919050565b7f4e6f2066756e647320746f207769746864726177000000000000000000000000600082015250565b60006120706014836116df565b915061207b8261203a565b602082019050919050565b6000602082019050818103600083015261209f81612063565b9050919050565b600081905092915050565b50565b60006120c16000836120a6565b91506120cc826120b1565b600082019050919050565b60006120e2826120b4565b9150819050919050565b7f5769746864726177616c206661696c6564000000000000000000000000000000600082015250565b60006121226011836116df565b915061212d826120ec565b602082019050919050565b6000602082019050818103600083015261215181612115565b9050919050565b7f50616765206e6f7420666f756e64000000000000000000000000000000000000600082015250565b600061218e600e836116df565b915061219982612158565b602082019050919050565b600060208201905081810360008301526121bd81612181565b9050919050565b7f4f6e6c792063726561746f722063616e20656469740000000000000000000000600082015250565b60006121fa6015836116df565b9150612205826121c4565b602082019050919050565b60006020820190508181036000830152612229816121ed565b9050919050565b600082905092915050565b6122458383612230565b67ffffffffffffffff81111561225e5761225d611bfa565b5b6122688254611a19565b612273828285611d48565b6000601f8311600181146122a25760008415612290578287013590505b61229a8582611db9565b865550612302565b601f1984166122b086611c29565b60005b828110156122d8578489013582556001820191506020850194506020810190506122b3565b868310156122f557848901356122f1601f891682611d9b565b8355505b6001600288020188555050505b50505050505050565b60008151905061231a81611813565b92915050565b60006020828403121561233657612335611617565b5b60006123448482850161230b565b91505092915050565b7f416c726561647920766f74656400000000000000000000000000000000000000600082015250565b6000612383600d836116df565b915061238e8261234d565b602082019050919050565b600060208201905081810360008301526123b281612376565b9050919050565b7f496e73756666696369656e74207374616b652073656e74000000000000000000600082015250565b60006123ef6017836116df565b91506123fa826123b9565b602082019050919050565b6000602082019050818103600083015261241e816123e2565b9050919050565b6000612430826116bb565b915061243b836116bb565b9250828202612449816116bb565b915082820484148315176124605761245f611ea7565b5b5092915050565b7f4e487b7100000000000000000000000000000000000000000000000000000000600052601260045260246000fd5b60006124a1826116bb565b91506124ac836116bb565b9250826124bc576124bb612467565b5b828204905092915050565b60006124d2826116bb565b91506124dd836116bb565b92508282039050818111156124f5576124f4611ea7565b5b92915050565b7f43726561746f72207061796d656e74206661696c656400000000000000000000600082015250565b60006125316016836116df565b915061253c826124fb565b602082019050919050565b6000602082019050818103600083015261256081612524565b9050919050565b600060408201905061257c60008301856116c5565b61258960208301846116c5565b939250505056fea2646970667358221220a03ce4539c4de65a37727c7c0d0ea89bf5e0074765022a38f0c34af63d29c5c764736f6c63430008140033",
  "linkReferences": {},
  "deployedLinkReferences": {}
}